{
  "_format": "hh-sol-artifact-1",
  "contractName": "Election",
  "sourceName": "contracts/Election.sol",
  "abi": [
    {
      "inputs": [
        {
          "internalType": "uint256",
          "name": "_commitDuration",
          "type": "uint256"
        },
        {
          "internalType": "uint256",
          "name": "_revealDuration",
          "type": "uint256"
        }
      ],
      "stateMutability": "nonpayable",
      "type": "constructor"
    },
    {
      "inputs": [],
      "name": "DEPOSIT",
      "outputs": [
        {
          "internalType": "uint256",
          "name": "",
          "type": "uint256"
        }
      ],
      "stateMutability": "view",
      "type": "function"
    },
    {
      "inputs": [],
      "name": "REFUND_THRESHOLD",
      "outputs": [
        {
          "internalType": "uint256",
          "name": "",
          "type": "uint256"
        }
      ],
      "stateMutability": "view",
      "type": "function"
    },
    {
      "inputs": [
        {
          "internalType": "uint256",
          "name": "",
          "type": "uint256"
        }
      ],
      "name": "candidateList",
      "outputs": [
        {
          "internalType": "address",
          "name": "",
          "type": "address"
        }
      ],
      "stateMutability": "view",
      "type": "function"
    },
    {
      "inputs": [
        {
          "internalType": "address",
          "name": "",
          "type": "address"
        }
      ],
      "name": "candidates",
      "outputs": [
        {
          "internalType": "address",
          "name": "candidateAddress",
          "type": "address"
        },
        {
          "internalType": "string",
          "name": "name",
          "type": "string"
        },
        {
          "internalType": "uint256",
          "name": "voteCount",
          "type": "uint256"
        },
        {
          "internalType": "bool",
          "name": "nominated",
          "type": "bool"
        },
        {
          "internalType": "bool",
          "name": "refunded",
          "type": "bool"
        }
      ],
      "stateMutability": "view",
      "type": "function"
    },
    {
      "inputs": [],
      "name": "claimRefund",
      "outputs": [],
      "stateMutability": "nonpayable",
      "type": "function"
    },
    {
      "inputs": [
        {
          "internalType": "bytes32",
          "name": "_voteHash",
          "type": "bytes32"
        }
      ],
      "name": "commitVote",
      "outputs": [],
      "stateMutability": "nonpayable",
      "type": "function"
    },
    {
      "inputs": [],
      "name": "currentPhase",
      "outputs": [
        {
          "internalType": "enum Election.Phase",
          "name": "",
          "type": "uint8"
        }
      ],
      "stateMutability": "view",
      "type": "function"
    },
    {
      "inputs": [],
      "name": "electionEnd",
      "outputs": [
        {
          "internalType": "uint256",
          "name": "",
          "type": "uint256"
        }
      ],
      "stateMutability": "view",
      "type": "function"
    },
    {
      "inputs": [],
      "name": "getTop10",
      "outputs": [
        {
          "internalType": "address[]",
          "name": "",
          "type": "address[]"
        }
      ],
      "stateMutability": "view",
      "type": "function"
    },
    {
      "inputs": [
        {
          "internalType": "address",
          "name": "candidate",
          "type": "address"
        }
      ],
      "name": "getVoteCount",
      "outputs": [
        {
          "internalType": "uint256",
          "name": "",
          "type": "uint256"
        }
      ],
      "stateMutability": "view",
      "type": "function"
    },
    {
      "inputs": [],
      "name": "nextPhase",
      "outputs": [],
      "stateMutability": "nonpayable",
      "type": "function"
    },
    {
      "inputs": [
        {
          "internalType": "string",
          "name": "name",
          "type": "string"
        }
      ],
      "name": "nominate",
      "outputs": [],
      "stateMutability": "payable",
      "type": "function"
    },
    {
      "inputs": [],
      "name": "owner",
      "outputs": [
        {
          "internalType": "address",
          "name": "",
          "type": "address"
        }
      ],
      "stateMutability": "view",
      "type": "function"
    },
    {
      "inputs": [],
      "name": "publishResults",
      "outputs": [],
      "stateMutability": "nonpayable",
      "type": "function"
    },
    {
      "inputs": [
        {
          "internalType": "address",
          "name": "voter",
          "type": "address"
        }
      ],
      "name": "registerVoter",
      "outputs": [],
      "stateMutability": "nonpayable",
      "type": "function"
    },
    {
      "inputs": [],
      "name": "resultsPublished",
      "outputs": [
        {
          "internalType": "bool",
          "name": "",
          "type": "bool"
        }
      ],
      "stateMutability": "view",
      "type": "function"
    },
    {
      "inputs": [],
      "name": "revealEnd",
      "outputs": [
        {
          "internalType": "uint256",
          "name": "",
          "type": "uint256"
        }
      ],
      "stateMutability": "view",
      "type": "function"
    },
    {
      "inputs": [
        {
          "internalType": "address",
          "name": "candidate",
          "type": "address"
        },
        {
          "internalType": "string",
          "name": "secret",
          "type": "string"
        }
      ],
      "name": "revealVote",
      "outputs": [],
      "stateMutability": "nonpayable",
      "type": "function"
    },
    {
      "inputs": [
        {
          "internalType": "uint256",
          "name": "",
          "type": "uint256"
        }
      ],
      "name": "top10",
      "outputs": [
        {
          "internalType": "address",
          "name": "",
          "type": "address"
        }
      ],
      "stateMutability": "view",
      "type": "function"
    },
    {
      "inputs": [],
      "name": "totalVoters",
      "outputs": [
        {
          "internalType": "uint256",
          "name": "",
          "type": "uint256"
        }
      ],
      "stateMutability": "view",
      "type": "function"
    },
    {
      "inputs": [],
      "name": "totalVotes",
      "outputs": [
        {
          "internalType": "uint256",
          "name": "",
          "type": "uint256"
        }
      ],
      "stateMutability": "view",
      "type": "function"
    },
    {
      "inputs": [
        {
          "internalType": "address",
          "name": "",
          "type": "address"
        }
      ],
      "name": "voters",
      "outputs": [
        {
          "internalType": "bool",
          "name": "registered",
          "type": "bool"
        },
        {
          "internalType": "bytes32",
          "name": "voteHash",
          "type": "bytes32"
        },
        {
          "internalType": "bool",
          "name": "voted",
          "type": "bool"
        },
        {
          "internalType": "bool",
          "name": "revealed",
          "type": "bool"
        }
      ],
      "stateMutability": "view",
      "type": "function"
    }
  ],
  "bytecode": "0x6080604052600060065560006007556000600860006101000a81548160ff02191690831515021790555034801561003557600080fd5b506040516132703803806132708339818101604052810190610057919061012b565b33600260006101000a81548173ffffffffffffffffffffffffffffffffffffffff021916908373ffffffffffffffffffffffffffffffffffffffff1602179055506000600260146101000a81548160ff021916908360038111156100be576100bd61016b565b5b021790555081426100cf91906101c9565b600081905550806000546100e391906101c9565b60018190555050506101fd565b600080fd5b6000819050919050565b610108816100f5565b811461011357600080fd5b50565b600081519050610125816100ff565b92915050565b60008060408385031215610142576101416100f0565b5b600061015085828601610116565b925050602061016185828601610116565b9150509250929050565b7f4e487b7100000000000000000000000000000000000000000000000000000000600052602160045260246000fd5b7f4e487b7100000000000000000000000000000000000000000000000000000000600052601160045260246000fd5b60006101d4826100f5565b91506101df836100f5565b92508282019050808211156101f7576101f661019a565b5b92915050565b6130648061020c6000396000f3fe6080604052600436106101355760003560e01c80638ab66a90116100ab578063b13c744b1161006f578063b13c744b146103fe578063b5545a3c1461043b578063b952e7d814610452578063ce7ea16114610469578063d81c8e5214610494578063e652f4cc146104bf57610135565b80638ab66a901461030b5780638da5cb5b1461034c5780638ff9bacc14610377578063a3ec138d14610393578063a6e66477146103d357610135565b80633e858923116100fd5780633e8589231461021f5780633eadb6db1461024857806348b3b00e1461025f5780635f5300ff1461028a5780635f589599146102b557806384837ee1146102e057610135565b8063022764741461013a578063055ad42e146101775780630d15fd77146101a257806338db6dd3146101cd578063396aba98146101f6575b600080fd5b34801561014657600080fd5b50610161600480360381019061015c9190611c1d565b6104fc565b60405161016e9190611c8b565b60405180910390f35b34801561018357600080fd5b5061018c61053b565b6040516101999190611d1d565b60405180910390f35b3480156101ae57600080fd5b506101b761054e565b6040516101c49190611d47565b60405180910390f35b3480156101d957600080fd5b506101f460048036038101906101ef9190611d8e565b610554565b005b34801561020257600080fd5b5061021d60048036038101906102189190611f01565b6106ea565b005b34801561022b57600080fd5b5061024660048036038101906102419190611f93565b610a93565b005b34801561025457600080fd5b5061025d610ccd565b005b34801561026b57600080fd5b50610274610f25565b6040516102819190611d47565b60405180910390f35b34801561029657600080fd5b5061029f610f2a565b6040516102ac9190611d47565b60405180910390f35b3480156102c157600080fd5b506102ca610f30565b6040516102d79190611fdb565b60405180910390f35b3480156102ec57600080fd5b506102f5610f43565b60405161030291906120b4565b60405180910390f35b34801561031757600080fd5b50610332600480360381019061032d9190611d8e565b611020565b604051610343959493929190612155565b60405180910390f35b34801561035857600080fd5b50610361611118565b60405161036e9190611c8b565b60405180910390f35b610391600480360381019061038c91906121af565b61113e565b005b34801561039f57600080fd5b506103ba60048036038101906103b59190611d8e565b611421565b6040516103ca9493929190612207565b60405180910390f35b3480156103df57600080fd5b506103e8611478565b6040516103f59190611d47565b60405180910390f35b34801561040a57600080fd5b5061042560048036038101906104209190611c1d565b61147e565b6040516104329190611c8b565b60405180910390f35b34801561044757600080fd5b506104506114bd565b005b34801561045e57600080fd5b506104676116ef565b005b34801561047557600080fd5b5061047e611b75565b60405161048b9190611d47565b60405180910390f35b3480156104a057600080fd5b506104a9611b7b565b6040516104b69190611d47565b60405180910390f35b3480156104cb57600080fd5b506104e660048036038101906104e19190611d8e565b611b87565b6040516104f39190611d47565b60405180910390f35b6009818154811061050c57600080fd5b906000526020600020016000915054906101000a900473ffffffffffffffffffffffffffffffffffffffff1681565b600260149054906101000a900460ff1681565b60065481565b600260009054906101000a900473ffffffffffffffffffffffffffffffffffffffff1673ffffffffffffffffffffffffffffffffffffffff163373ffffffffffffffffffffffffffffffffffffffff16146105e4576040517f08c379a00000000000000000000000000000000000000000000000000000000081526004016105db90612298565b60405180910390fd5b600560008273ffffffffffffffffffffffffffffffffffffffff1673ffffffffffffffffffffffffffffffffffffffff16815260200190815260200160002060000160009054906101000a900460ff1615610674576040517f08c379a000000000000000000000000000000000000000000000000000000000815260040161066b90612304565b60405180910390fd5b6001600560008373ffffffffffffffffffffffffffffffffffffffff1673ffffffffffffffffffffffffffffffffffffffff16815260200190815260200160002060000160006101000a81548160ff021916908315150217905550600760008154809291906106e290612353565b919050555050565b600260038111156106fe576106fd611ca6565b5b600260149054906101000a900460ff1660038111156107205761071f611ca6565b5b14610760576040517f08c379a0000000000000000000000000000000000000000000000000000000008152600401610757906123e7565b60405180910390fd5b600560003373ffffffffffffffffffffffffffffffffffffffff1673ffffffffffffffffffffffffffffffffffffffff16815260200190815260200160002060020160009054906101000a900460ff166107ef576040517f08c379a00000000000000000000000000000000000000000000000000000000081526004016107e690612453565b60405180910390fd5b600560003373ffffffffffffffffffffffffffffffffffffffff1673ffffffffffffffffffffffffffffffffffffffff16815260200190815260200160002060020160019054906101000a900460ff161561087f576040517f08c379a0000000000000000000000000000000000000000000000000000000008152600401610876906124bf565b60405180910390fd5b60008282604051602001610894929190612563565b604051602081830303815290604052805190602001209050600560003373ffffffffffffffffffffffffffffffffffffffff1673ffffffffffffffffffffffffffffffffffffffff168152602001908152602001600020600101548114610930576040517f08c379a0000000000000000000000000000000000000000000000000000000008152600401610927906125d7565b60405180910390fd5b600460008473ffffffffffffffffffffffffffffffffffffffff1673ffffffffffffffffffffffffffffffffffffffff16815260200190815260200160002060030160009054906101000a900460ff166109bf576040517f08c379a00000000000000000000000000000000000000000000000000000000081526004016109b690612643565b60405180910390fd5b6001600460008573ffffffffffffffffffffffffffffffffffffffff1673ffffffffffffffffffffffffffffffffffffffff1681526020019081526020016000206002016000828254610a129190612663565b925050819055506001600560003373ffffffffffffffffffffffffffffffffffffffff1673ffffffffffffffffffffffffffffffffffffffff16815260200190815260200160002060020160016101000a81548160ff021916908315150217905550600160066000828254610a879190612663565b92505081905550505050565b60016003811115610aa757610aa6611ca6565b5b600260149054906101000a900460ff166003811115610ac957610ac8611ca6565b5b14610b09576040517f08c379a0000000000000000000000000000000000000000000000000000000008152600401610b00906126e3565b60405180910390fd5b600560003373ffffffffffffffffffffffffffffffffffffffff1673ffffffffffffffffffffffffffffffffffffffff16815260200190815260200160002060000160009054906101000a900460ff16610b98576040517f08c379a0000000000000000000000000000000000000000000000000000000008152600401610b8f9061274f565b60405180910390fd5b600560003373ffffffffffffffffffffffffffffffffffffffff1673ffffffffffffffffffffffffffffffffffffffff16815260200190815260200160002060020160009054906101000a900460ff1615610c28576040517f08c379a0000000000000000000000000000000000000000000000000000000008152600401610c1f906127bb565b60405180910390fd5b80600560003373ffffffffffffffffffffffffffffffffffffffff1673ffffffffffffffffffffffffffffffffffffffff168152602001908152602001600020600101819055506001600560003373ffffffffffffffffffffffffffffffffffffffff1673ffffffffffffffffffffffffffffffffffffffff16815260200190815260200160002060020160006101000a81548160ff02191690831515021790555050565b600260009054906101000a900473ffffffffffffffffffffffffffffffffffffffff1673ffffffffffffffffffffffffffffffffffffffff163373ffffffffffffffffffffffffffffffffffffffff1614610d5d576040517f08c379a0000000000000000000000000000000000000000000000000000000008152600401610d5490612298565b60405180910390fd5b60006003811115610d7157610d70611ca6565b5b600260149054906101000a900460ff166003811115610d9357610d92611ca6565b5b03610dc8576001600260146101000a81548160ff02191690836003811115610dbe57610dbd611ca6565b5b0217905550610f23565b60016003811115610ddc57610ddb611ca6565b5b600260149054906101000a900460ff166003811115610dfe57610dfd611ca6565b5b03610e76576000544211610e47576040517f08c379a0000000000000000000000000000000000000000000000000000000008152600401610e3e90612827565b60405180910390fd5b60028060146101000a81548160ff02191690836003811115610e6c57610e6b611ca6565b5b0217905550610f22565b60026003811115610e8a57610e89611ca6565b5b600260149054906101000a900460ff166003811115610eac57610eab611ca6565b5b03610f21576001544211610ef5576040517f08c379a0000000000000000000000000000000000000000000000000000000008152600401610eec90612893565b60405180910390fd5b6003600260146101000a81548160ff02191690836003811115610f1b57610f1a611ca6565b5b02179055505b5b5b565b607d81565b60075481565b600860009054906101000a900460ff1681565b6060600860009054906101000a900460ff16610f94576040517f08c379a0000000000000000000000000000000000000000000000000000000008152600401610f8b906128ff565b60405180910390fd5b600980548060200260200160405190810160405280929190818152602001828054801561101657602002820191906000526020600020905b8160009054906101000a900473ffffffffffffffffffffffffffffffffffffffff1673ffffffffffffffffffffffffffffffffffffffff1681526020019060010190808311610fcc575b5050505050905090565b60046020528060005260406000206000915090508060000160009054906101000a900473ffffffffffffffffffffffffffffffffffffffff16908060010180546110699061294e565b80601f01602080910402602001604051908101604052809291908181526020018280546110959061294e565b80156110e25780601f106110b7576101008083540402835291602001916110e2565b820191906000526020600020905b8154815290600101906020018083116110c557829003601f168201915b5050505050908060020154908060030160009054906101000a900460ff16908060030160019054906101000a900460ff16905085565b600260009054906101000a900473ffffffffffffffffffffffffffffffffffffffff1681565b6000600381111561115257611151611ca6565b5b600260149054906101000a900460ff16600381111561117457611173611ca6565b5b146111b4576040517f08c379a00000000000000000000000000000000000000000000000000000000081526004016111ab906129cb565b60405180910390fd5b600460003373ffffffffffffffffffffffffffffffffffffffff1673ffffffffffffffffffffffffffffffffffffffff16815260200190815260200160002060030160009054906101000a900460ff1615611244576040517f08c379a000000000000000000000000000000000000000000000000000000000815260040161123b90612a37565b60405180910390fd5b67016345785d8a0000341461128e576040517f08c379a000000000000000000000000000000000000000000000000000000000815260040161128590612aa3565b60405180910390fd5b6040518060a001604052803373ffffffffffffffffffffffffffffffffffffffff1681526020018281526020016000815260200160011515815260200160001515815250600460003373ffffffffffffffffffffffffffffffffffffffff1673ffffffffffffffffffffffffffffffffffffffff16815260200190815260200160002060008201518160000160006101000a81548173ffffffffffffffffffffffffffffffffffffffff021916908373ffffffffffffffffffffffffffffffffffffffff160217905550602082015181600101908161136d9190612c6f565b506040820151816002015560608201518160030160006101000a81548160ff02191690831515021790555060808201518160030160016101000a81548160ff0219169083151502179055509050506003339080600181540180825580915050600190039060005260206000200160009091909190916101000a81548173ffffffffffffffffffffffffffffffffffffffff021916908373ffffffffffffffffffffffffffffffffffffffff16021790555050565b60056020528060005260406000206000915090508060000160009054906101000a900460ff16908060010154908060020160009054906101000a900460ff16908060020160019054906101000a900460ff16905084565b60015481565b6003818154811061148e57600080fd5b906000526020600020016000915054906101000a900473ffffffffffffffffffffffffffffffffffffffff1681565b6003808111156114d0576114cf611ca6565b5b600260149054906101000a900460ff1660038111156114f2576114f1611ca6565b5b14611532576040517f08c379a000000000000000000000000000000000000000000000000000000000815260040161152990612d8d565b60405180910390fd5b6000600460003373ffffffffffffffffffffffffffffffffffffffff1673ffffffffffffffffffffffffffffffffffffffff16815260200190815260200160002090508060030160009054906101000a900460ff166115c6576040517f08c379a00000000000000000000000000000000000000000000000000000000081526004016115bd90612df9565b60405180910390fd5b8060030160019054906101000a900460ff1615611618576040517f08c379a000000000000000000000000000000000000000000000000000000000815260040161160f90612e65565b60405180910390fd5b60006103e8607d60065461162c9190612e85565b6116369190612ef6565b9050808260020154101561167f576040517f08c379a000000000000000000000000000000000000000000000000000000000815260040161167690612f73565b60405180910390fd5b60018260030160016101000a81548160ff0219169083151502179055503373ffffffffffffffffffffffffffffffffffffffff166108fc67016345785d8a00009081150290604051600060405180830381858888f193505050501580156116ea573d6000803e3d6000fd5b505050565b600260009054906101000a900473ffffffffffffffffffffffffffffffffffffffff1673ffffffffffffffffffffffffffffffffffffffff163373ffffffffffffffffffffffffffffffffffffffff161461177f576040517f08c379a000000000000000000000000000000000000000000000000000000000815260040161177690612298565b60405180910390fd5b60038081111561179257611791611ca6565b5b600260149054906101000a900460ff1660038111156117b4576117b3611ca6565b5b146117f4576040517f08c379a00000000000000000000000000000000000000000000000000000000081526004016117eb90612d8d565b60405180910390fd5b600860009054906101000a900460ff1615611844576040517f08c379a000000000000000000000000000000000000000000000000000000000815260040161183b90612fdf565b60405180910390fd5b600060038054806020026020016040519081016040528092919081815260200182805480156118c857602002820191906000526020600020905b8160009054906101000a900473ffffffffffffffffffffffffffffffffffffffff1673ffffffffffffffffffffffffffffffffffffffff168152602001906001019080831161187e575b5050505050905060005b8151811015611aa85760006001826118ea9190612663565b90505b8251811015611a9a576004600084848151811061190d5761190c612fff565b5b602002602001015173ffffffffffffffffffffffffffffffffffffffff1673ffffffffffffffffffffffffffffffffffffffff168152602001908152602001600020600201546004600085848151811061196a57611969612fff565b5b602002602001015173ffffffffffffffffffffffffffffffffffffffff1673ffffffffffffffffffffffffffffffffffffffff168152602001908152602001600020600201541115611a8d5760008383815181106119cb576119ca612fff565b5b602002602001015190508382815181106119e8576119e7612fff565b5b6020026020010151848481518110611a0357611a02612fff565b5b602002602001019073ffffffffffffffffffffffffffffffffffffffff16908173ffffffffffffffffffffffffffffffffffffffff168152505080848381518110611a5157611a50612fff565b5b602002602001019073ffffffffffffffffffffffffffffffffffffffff16908173ffffffffffffffffffffffffffffffffffffffff1681525050505b80806001019150506118ed565b5080806001019150506118d2565b506000600a825110611abb57600a611abe565b81515b905060005b81811015611b55576009838281518110611ae057611adf612fff565b5b60200260200101519080600181540180825580915050600190039060005260206000200160009091909190916101000a81548173ffffffffffffffffffffffffffffffffffffffff021916908373ffffffffffffffffffffffffffffffffffffffff1602179055508080600101915050611ac3565b506001600860006101000a81548160ff0219169083151502179055505050565b60005481565b67016345785d8a000081565b6000600460008373ffffffffffffffffffffffffffffffffffffffff1673ffffffffffffffffffffffffffffffffffffffff168152602001908152602001600020600201549050919050565b6000604051905090565b600080fd5b600080fd5b6000819050919050565b611bfa81611be7565b8114611c0557600080fd5b50565b600081359050611c1781611bf1565b92915050565b600060208284031215611c3357611c32611bdd565b5b6000611c4184828501611c08565b91505092915050565b600073ffffffffffffffffffffffffffffffffffffffff82169050919050565b6000611c7582611c4a565b9050919050565b611c8581611c6a565b82525050565b6000602082019050611ca06000830184611c7c565b92915050565b7f4e487b7100000000000000000000000000000000000000000000000000000000600052602160045260246000fd5b60048110611ce657611ce5611ca6565b5b50565b6000819050611cf782611cd5565b919050565b6000611d0782611ce9565b9050919050565b611d1781611cfc565b82525050565b6000602082019050611d326000830184611d0e565b92915050565b611d4181611be7565b82525050565b6000602082019050611d5c6000830184611d38565b92915050565b611d6b81611c6a565b8114611d7657600080fd5b50565b600081359050611d8881611d62565b92915050565b600060208284031215611da457611da3611bdd565b5b6000611db284828501611d79565b91505092915050565b600080fd5b600080fd5b6000601f19601f8301169050919050565b7f4e487b7100000000000000000000000000000000000000000000000000000000600052604160045260246000fd5b611e0e82611dc5565b810181811067ffffffffffffffff82111715611e2d57611e2c611dd6565b5b80604052505050565b6000611e40611bd3565b9050611e4c8282611e05565b919050565b600067ffffffffffffffff821115611e6c57611e6b611dd6565b5b611e7582611dc5565b9050602081019050919050565b82818337600083830152505050565b6000611ea4611e9f84611e51565b611e36565b905082815260208101848484011115611ec057611ebf611dc0565b5b611ecb848285611e82565b509392505050565b600082601f830112611ee857611ee7611dbb565b5b8135611ef8848260208601611e91565b91505092915050565b60008060408385031215611f1857611f17611bdd565b5b6000611f2685828601611d79565b925050602083013567ffffffffffffffff811115611f4757611f46611be2565b5b611f5385828601611ed3565b9150509250929050565b6000819050919050565b611f7081611f5d565b8114611f7b57600080fd5b50565b600081359050611f8d81611f67565b92915050565b600060208284031215611fa957611fa8611bdd565b5b6000611fb784828501611f7e565b91505092915050565b60008115159050919050565b611fd581611fc0565b82525050565b6000602082019050611ff06000830184611fcc565b92915050565b600081519050919050565b600082825260208201905092915050565b6000819050602082019050919050565b61202b81611c6a565b82525050565b600061203d8383612022565b60208301905092915050565b6000602082019050919050565b600061206182611ff6565b61206b8185612001565b935061207683612012565b8060005b838110156120a757815161208e8882612031565b975061209983612049565b92505060018101905061207a565b5085935050505092915050565b600060208201905081810360008301526120ce8184612056565b905092915050565b600081519050919050565b600082825260208201905092915050565b60005b838110156121105780820151818401526020810190506120f5565b60008484015250505050565b6000612127826120d6565b61213181856120e1565b93506121418185602086016120f2565b61214a81611dc5565b840191505092915050565b600060a08201905061216a6000830188611c7c565b818103602083015261217c818761211c565b905061218b6040830186611d38565b6121986060830185611fcc565b6121a56080830184611fcc565b9695505050505050565b6000602082840312156121c5576121c4611bdd565b5b600082013567ffffffffffffffff8111156121e3576121e2611be2565b5b6121ef84828501611ed3565b91505092915050565b61220181611f5d565b82525050565b600060808201905061221c6000830187611fcc565b61222960208301866121f8565b6122366040830185611fcc565b6122436060830184611fcc565b95945050505050565b7f4f6e6c792061646d696e2063616e20646f207468697300000000000000000000600082015250565b60006122826016836120e1565b915061228d8261224c565b602082019050919050565b600060208201905081810360008301526122b181612275565b9050919050565b7f416c726561647920726567697374657265640000000000000000000000000000600082015250565b60006122ee6012836120e1565b91506122f9826122b8565b602082019050919050565b6000602082019050818103600083015261231d816122e1565b9050919050565b7f4e487b7100000000000000000000000000000000000000000000000000000000600052601160045260246000fd5b600061235e82611be7565b91507fffffffffffffffffffffffffffffffffffffffffffffffffffffffffffffffff82036123905761238f612324565b5b600182019050919050565b7f4e6f742072657665616c20706861736500000000000000000000000000000000600082015250565b60006123d16010836120e1565b91506123dc8261239b565b602082019050919050565b60006020820190508181036000830152612400816123c4565b9050919050565b7f446964206e6f7420636f6d6d6974000000000000000000000000000000000000600082015250565b600061243d600e836120e1565b915061244882612407565b602082019050919050565b6000602082019050818103600083015261246c81612430565b9050919050565b7f416c72656164792072657665616c656400000000000000000000000000000000600082015250565b60006124a96010836120e1565b91506124b482612473565b602082019050919050565b600060208201905081810360008301526124d88161249c565b9050919050565b60008160601b9050919050565b60006124f7826124df565b9050919050565b6000612509826124ec565b9050919050565b61252161251c82611c6a565b6124fe565b82525050565b600081905092915050565b600061253d826120d6565b6125478185612527565b93506125578185602086016120f2565b80840191505092915050565b600061256f8285612510565b60148201915061257f8284612532565b91508190509392505050565b7f496e76616c69642072657665616c000000000000000000000000000000000000600082015250565b60006125c1600e836120e1565b91506125cc8261258b565b602082019050919050565b600060208201905081810360008301526125f0816125b4565b9050919050565b7f496e76616c69642063616e646964617465000000000000000000000000000000600082015250565b600061262d6011836120e1565b9150612638826125f7565b602082019050919050565b6000602082019050818103600083015261265c81612620565b9050919050565b600061266e82611be7565b915061267983611be7565b925082820190508082111561269157612690612324565b5b92915050565b7f4e6f7420636f6d6d697420706861736500000000000000000000000000000000600082015250565b60006126cd6010836120e1565b91506126d882612697565b602082019050919050565b600060208201905081810360008301526126fc816126c0565b9050919050565b7f4e6f742072656769737465726564000000000000000000000000000000000000600082015250565b6000612739600e836120e1565b915061274482612703565b602082019050919050565b600060208201905081810360008301526127688161272c565b9050919050565b7f416c726561647920766f74656400000000000000000000000000000000000000600082015250565b60006127a5600d836120e1565b91506127b08261276f565b602082019050919050565b600060208201905081810360008301526127d481612798565b9050919050565b7f436f6d6d6974207068617365206e6f74206f7665720000000000000000000000600082015250565b60006128116015836120e1565b915061281c826127db565b602082019050919050565b6000602082019050818103600083015261284081612804565b9050919050565b7f52657665616c207068617365206e6f74206f7665720000000000000000000000600082015250565b600061287d6015836120e1565b915061288882612847565b602082019050919050565b600060208201905081810360008301526128ac81612870565b9050919050565b7f526573756c7473206e6f74207265616479000000000000000000000000000000600082015250565b60006128e96011836120e1565b91506128f4826128b3565b602082019050919050565b60006020820190508181036000830152612918816128dc565b9050919050565b7f4e487b7100000000000000000000000000000000000000000000000000000000600052602260045260246000fd5b6000600282049050600182168061296657607f821691505b6020821081036129795761297861291f565b5b50919050565b7f4e6f7420696e206e6f6d696e6174696f6e207068617365000000000000000000600082015250565b60006129b56017836120e1565b91506129c08261297f565b602082019050919050565b600060208201905081810360008301526129e4816129a8565b9050919050565b7f416c7265616479206e6f6d696e61746564000000000000000000000000000000600082015250565b6000612a216011836120e1565b9150612a2c826129eb565b602082019050919050565b60006020820190508181036000830152612a5081612a14565b9050919050565b7f4465706f736974206f6620302e31204554482072657175697265640000000000600082015250565b6000612a8d601b836120e1565b9150612a9882612a57565b602082019050919050565b60006020820190508181036000830152612abc81612a80565b9050919050565b60008190508160005260206000209050919050565b60006020601f8301049050919050565b600082821b905092915050565b600060088302612b257fffffffffffffffffffffffffffffffffffffffffffffffffffffffffffffffff82612ae8565b612b2f8683612ae8565b95508019841693508086168417925050509392505050565b6000819050919050565b6000612b6c612b67612b6284611be7565b612b47565b611be7565b9050919050565b6000819050919050565b612b8683612b51565b612b9a612b9282612b73565b848454612af5565b825550505050565b600090565b612baf612ba2565b612bba818484612b7d565b505050565b5b81811015612bde57612bd3600082612ba7565b600181019050612bc0565b5050565b601f821115612c2357612bf481612ac3565b612bfd84612ad8565b81016020851015612c0c578190505b612c20612c1885612ad8565b830182612bbf565b50505b505050565b600082821c905092915050565b6000612c4660001984600802612c28565b1980831691505092915050565b6000612c5f8383612c35565b9150826002028217905092915050565b612c78826120d6565b67ffffffffffffffff811115612c9157612c90611dd6565b5b612c9b825461294e565b612ca6828285612be2565b600060209050601f831160018114612cd95760008415612cc7578287015190505b612cd18582612c53565b865550612d39565b601f198416612ce786612ac3565b60005b82811015612d0f57848901518255600182019150602085019450602081019050612cea565b86831015612d2c5784890151612d28601f891682612c35565b8355505b6001600288020188555050505b505050505050565b7f456c656374696f6e206e6f7420656e6465640000000000000000000000000000600082015250565b6000612d776012836120e1565b9150612d8282612d41565b602082019050919050565b60006020820190508181036000830152612da681612d6a565b9050919050565b7f4e6f7420612063616e6469646174650000000000000000000000000000000000600082015250565b6000612de3600f836120e1565b9150612dee82612dad565b602082019050919050565b60006020820190508181036000830152612e1281612dd6565b9050919050565b7f416c726561647920726566756e64656400000000000000000000000000000000600082015250565b6000612e4f6010836120e1565b9150612e5a82612e19565b602082019050919050565b60006020820190508181036000830152612e7e81612e42565b9050919050565b6000612e9082611be7565b9150612e9b83611be7565b9250828202612ea981611be7565b91508282048414831517612ec057612ebf612324565b5b5092915050565b7f4e487b7100000000000000000000000000000000000000000000000000000000600052601260045260246000fd5b6000612f0182611be7565b9150612f0c83611be7565b925082612f1c57612f1b612ec7565b5b828204905092915050565b7f4e6f7420656e6f75676820766f74657320666f7220726566756e640000000000600082015250565b6000612f5d601b836120e1565b9150612f6882612f27565b602082019050919050565b60006020820190508181036000830152612f8c81612f50565b9050919050565b7f416c7265616479207075626c6973686564000000000000000000000000000000600082015250565b6000612fc96011836120e1565b9150612fd482612f93565b602082019050919050565b60006020820190508181036000830152612ff881612fbc565b9050919050565b7f4e487b7100000000000000000000000000000000000000000000000000000000600052603260045260246000fdfea264697066735822122041b5cf94ef2f10f75ae8aea3584de0b729d6954ea4fdd81089c8e4659d3cb97b64736f6c634300081c0033",
  "linkReferences": {},
  "deployedLinkReferences": {}
}